:020000040000FA
:020000000B28CB
:10000800DE00030E8312A0000A08A10006290C28AE
:100018008312B001830110288312AE01AF01FF23C0
:100028008316900048309F001030850083128501A8
:100038008D309F000730990083169901C4308312D0
:10004800AA002A0883168105831281018B168B1753
:100058008312AD01F12083122208AE070318AF0AFC
:100068002308AF070130AA002A08AD0728302D025F
:10007800031C2E282830A2000030A3002F08A5005A
:100088002E08A400B42083122308AF002208AE0073
:1000980000302F024C3003192E02031CB00100302F
:1000A8002F024C3003192E02031C652800302F0242
:1000B800503003192E0203186528C830AA002A08F0
:1000C800B00000302F02503003192E02031C77288D
:1000D80000302F02543003192E0203187728D73026
:1000E800AA002A08B00000302F02543003192E024B
:1000F800031C892800302F02583003192E020318D8
:100108008928E630AA002A08B00000302F025830AB
:1001180003192E02031C9B2800302F025C300319A0
:100128002E0203189B28F530AA002A08B0000030D8
:100138002F025C3003192E02031CA628FF30AA00E8
:100148002A08B0000430AC000C30AB003330AA00F1
:10015800AA0BAC28AB0BAC28AC0BAC28B3282C28CA
:100168008312A701A801220823040319EC28A90176
:10017800A90AA31BCB2801300310A20DA30DFF3E33
:10018800031DC0280130A6002608A907BD28013094
:100198000310A70DA80DFF3E031DCC282308250238
:1001A800031DD82822082402031CE1282208A402DF
:1001B8002308031CA503A502271401300310A30C70
:1001C800A20CFF3E031DE2280130A902031DCB2823
:1001D8002808A3002708A20008000D308312A500F4
:1001E800FB30A400A40BF628A50BF628FB288312E5
:1001F8009F149F18FD281E08A30083161E0883124B
:10020800A20008000B1D14293008031D0E29051033
:100218003008122905180B290514300981000B1123
:0E02280021088A00200E8300DE0E5E0E090003
:02400E00C431BB
:00000001FF
