:020000040000FA
:020000000B28CB
:10000800DE00030E8312A0000A08A100D2280C28E3
:100018008312AD01830110288312A901AA01FF23CD
:100028008316900048309F001030850083128501A8
:1000380081309F000730990083169901CC308312D4
:10004800A600260883168105831281018B168B175B
:10005800B52083122308AC002208AB0029082A0423
:10006800031D3A282C08AA002B08A90029082B07E9
:10007800A6002A0803182A0A2C07A7000310A70CB1
:10008800A60C2608AB002708AC002C08AA002B08F1
:10009800A90000302C024C3003192B02031CAD01BF
:1000A80000302C024C3003192B02031C6628003048
:1000B8002C02503003192B0203186628C830A600FA
:1000C8002608AD0000302C02503003192B02031C07
:1000D800782800302C02543003192B020318782892
:1000E800D730A6002608AD0000302C025430031982
:1000F8002B02031C8A2800302C02583003192B02CB
:1001080003188A28E630A6002608AD0000302C0225
:10011800583003192B02031C9C2800302C025C3039
:1001280003192B0203189C28F530A6002608AD00F9
:1001380000302C025C3003192B02031CA728FF3067
:10014800A6002608AD000330A8008A30A700553065
:10015800A600A60BAD28A70BAD28A80BAD28B42880
:100168002C28F3308312A40024089F050C30A40027
:1001780024089F040D30A500FB30A400A40BC2285E
:10018800A50BC228C72883129F149F18C9281E08C8
:10019800A30083161E088312A20008000B1DE02886
:1001A8002D08031DDA2805102D08DE280518D72884
:1001B80005142D0981000B1121088A00200E8300E7
:0601C800DE0E5E0E0900D0
:02400E00C431BB
:00000001FF
