:020000040000FA
:020000000B28CB
:10000800DE00030E8312A0000A08A1004E290C2866
:100018008312B001830110288312AE01AF01FF23C0
:100028008316900048309F001030850083128501A8
:100038008D309F000730990083169901C4308312D0
:10004800AA002A0883168105831281018B168B1753
:100058008312AD01392183122208AE070318AF0AB3
:100068002308AF070130AA002A08AD0728302D025F
:10007800031C2E282830A2000030A3002F08A5005A
:100088002E08A400FC2083122308AF002208AE002B
:1000980000302F024C3003192E02031CB00100302F
:1000A8002F024C3003192E02031C652800302F0242
:1000B8004E3003192E02031865284D30AA002A086D
:1000C800B00000302F024E3003192E02031C77288F
:1000D80000302F02503003192E020318772866309B
:1000E800AA002A08B00000302F02503003192E024F
:1000F800031C892800302F02523003192E020318DE
:1001080089287F30AA002A08B00000302F02523018
:1001180003192E02031C9B2800302F0254300319A8
:100128002E0203189B289830AA002A08B000003035
:100138002F02543003192E02031CAD2800302F0261
:10014800563003192E020318AD28B130AA002A0828
:10015800B00000302F02563003192E02031CBF28AE
:1001680000302F02583003192E020318BF28CA3056
:10017800AA002A08B00000302F02583003192E02B6
:10018800031CD12800302F025A3003192E020318FD
:10019800D128E330AA002A08B00000302F025A30D4
:1001A80003192E02031CE32800302F025C300319C8
:1001B8002E020318E328F530AA002A08B000003000
:1001C8002F025C3003192E02031CEE28FF30AA0010
:1001D8002A08B0000430AC000C30AB003330AA0061
:1001E800AA0BF428AB0BF428AC0BF428FB282C281A
:1001F8008312A701A8012208230403193429A9019D
:10020800A90AA31B132901300310A20DA30DFF3E59
:10021800031D08290130A6002608A9070529013071
:100228000310A70DA80DFF3E031D1429230825025E
:10023800031D202922082402031C29292208A402BC
:100248002308031CA503A502271401300310A30CDF
:10025800A20CFF3E031D2A290130A902031D132900
:100268002808A3002708A20008000D308312A50063
:10027800FB30A400A40B3E29A50B3E294329831279
:100288009F149F1845291E08A30083161E08831271
:10029800A20008000B1D5C293008031D5629051013
:1002A80030085A29051853290514300981000B1103
:0E02B80021088A00200E8300DE0E5E0E090073
:02400E00C431BB
:00000001FF
