:020000040000FA
:02000000F32BE0
:10045C00FF23831690009F01103085000730831214
:10046C00990083169901803081004A2A05140230C4
:10047C00B0000430AF00BA30AE00AE0B432AAF0B65
:10048C00432AB00B432A00008312051087228312E3
:10049C002008210403194C2A3208AE003308AF009F
:1004AC003408B0003508B10010300310B10CB00C9A
:1004BC00AF0CAE0CFF3E031D5B2A2F08B9002E08B3
:1004CC00B8003208AE003308AF003408B00035086D
:1004DC00B10008300310B10CB00CAF0CAE0CFF3EE9
:1004EC00031D702A2F08B7002E08B6003708E03A13
:1004FC000319812A862A3608923A03193C2A862A3D
:10050C004C2A00308312AD000030AC000030AB0040
:10051C000030AA00B22A2D08031DB52A2C08031D91
:10052C00B52A2B08031DB52A5A302A02031D9E2A10
:10053C000318B52A0130AA07003003180130AB07A5
:10054C00003003180130AC07003003180130AD0740
:10055C000D30A200A20BB02A8312051E912A003086
:10056C00AD000030AC000030AB000030AA00DF2A38
:10057C002D08031DE22A2C08031DE22A2B08031D5B
:10058C00E22A5A302A02031DCB2A0318E22A013030
:10059C00AA07003003180130AB07003003180130F4
:1005AC00AC07003003180130AD070D30A200A20BD0
:1005BC00DD2A8312051ABE2A0030A9000030A800DB
:1005CC000030A7000030A6000030AD000030AC00B9
:1005DC000030AB000030AA00152B2D08031D182B82
:1005EC002C08031D182B2B08031D182B0F302A0267
:1005FC00031D002B0318182B0130AA070030031819
:10060C000130AB07003003180130AC070030031881
:10061C000130AD070930A200A20B122B152B83124F
:10062C00051EF32A2D08031D362B2C08031D362B13
:10063C002B08031D362B0F302A02031D252B031804
:10064C00362B2D08031D392B2C08031D392B2B0899
:10065C00031D392B02302A02031D342B0318392BAE
:10066C00A001A10108000030AD000030AC0000304A
:10067C00AB000030AA00642B2D08031D672B2C083F
:10068C00031D672B2B08031D672B1E302A02031D2D
:10069C004F2B0318672B0130AA07003003180130C9
:1006AC00AB07003003180130AC07003003180130E1
:1006BC00AD070930A200A20B612B642B8312051A23
:1006CC00422B2D08031D362B2C08031D362B2B0813
:1006DC00031D362B1E302A02031D742B0318362BD8
:1006EC002D08031D852B2C08031D852B2B08031DA2
:1006FC00852B04302A02031D832B031C362B2D085B
:10070C00031D942B2C08031D942B2B08031D942BD9
:10071C0015302A02031D922B031CB12B0130A200B1
:10072C000030A3000030A4000030A50026081F3CB8
:10073C00013EA52B0310A20DA30DA40DA50DFF3E8C
:10074C00031DA02B2208B2042308B3042408B4040C
:10075C002508B504D12B0130A2000030A3000030D5
:10076C00A4000030A50026081F3C013EC22B03103C
:10077C00A20DA30DA40DA50DFF3E031DBD2BA209BB
:10078C00A309A409A5092208B2052308B305240866
:10079C00B4052508B5050130A60700300318013053
:1007AC00A707003003180130A807003003180130E8
:1007BC00A9072908031DEE2B2808031DEE2B27087B
:1007CC00031DEE2B20302602031DEC2B031CEA2A02
:1007DC000130A0000030A10008008312B201B30167
:1007EC00B401B501B601B701B801B901BA01830171
:0207FC002E2AA3
:02400E009431EB
:00000001FF
